:100000000C9434000C9451000C9451000C94510049
:100010000C9451000C9451000C9451000C9451001C
:100020000C9451000C9451000C9456050C9404054A
:100030000C942D050C94DB040C9451000C9451008D
:100040000C9451000C9451000C9451000C945100EC
:100050000C9451000C9451000C9451000C945100DC
:100060000C9451000C94510011241FBECFEFD8E026
:10007000DEBFCDBF11E0A0E0B1E0E2E2F5E102C0F9
:1000800005900D92A836B107D9F721E0A8E6B1E0B6
:1000900001C01D92A337B207E1F70E94FF050C943F
:1000A0008F0A0C9400000C945A028093000108956A
:1000B0000E94FA0280910001823069F030F48111CF
:1000C00007C08DE291E00C94C002833039F00895AE
:1000D00087E391E0F8CF86E491E0F5CF84E591E005
:1000E000F2CF0E9415030E942B039C019091010105
:1000F00081E09217130608F480E00895CF938EE50F
:1001000091E00E948F0360E08EE591E00E94B003D1
:100110000E9415030E942B03C82F8EE591E00E94D8
:100120008F0364EB8EE591E00E94B0030E941503FB
:100130000E942B03909101019C1728F0981728F03A
:1001400082E0CF91089580E0FCCF81E0FACF8091EA
:10015000680108950E94F9000E94530081E0809395
:100160006801089583E00E9455000E940E0182E01C
:100170008093680108950E947100813021F483E02A
:1001800080936801089587E0FBCF0E940B018130C6
:1001900019F480936801089582E0FBCF0E947E00ED
:1001A000813021F486E08093680108950E947E00EA
:1001B0008111FBCF85E0F7CF81E00E9455000E94BE
:1001C0003E0187E080936801089582E00E94550017
:1001D0000E94250187E080936801089580E00E94D5
:1001E00055000E94190182E08093680108950C94E3
:1001F00058008BE091E00E94400164E68BE091E0C2
:100200000E947D0182E091E00E94400164E682E06C
:1002100091E00C947D018091690108958BE091E05B
:100220000E94F60182E091E00E94F60110926901BD
:1002300008958BE091E00E94070282E091E00E9425
:10024000070281E08093690108958BE091E00E94AC
:10025000070282E091E00E9418022FEF89E698E100
:10026000215080409040E1F700C000008BE091E019
:100270000E94F60182E091E00C94F6010C942501B5
:10028000CF93DF93EC0141E06A81888199810E94DC
:100290007F0541E06D818B819C810E947F0541E05B
:1002A00068858E819F810E947F0540E06A818881F8
:1002B00099810E949A0540E06D818B819C810E940A
:1002C0009A0540E068858E819F810E949A058E8103
:1002D0009F81899731F48885863049F482E0809344
:1002E000150184E191E0DF91CF910C94F403853006
:1002F000C1F782E080931601F4CFCF93DF9300D053
:1003000000D0CDB7DEB7FC01962FA681B7816085FE
:10031000A932B10509F05DC0292F953608F024E611
:10032000663071F5822F90E0B0E0A0E089839A8377
:10033000AB83BC83BC01CD010E94C00623E333E341
:1003400043E250E469837A838B839C8369817A8159
:100350008B819C810E944C0769837A838B839C8369
:1003600069817A818B819C810E948F0670E080E098
:100370000F900F900F900F90DF91CF910C941A0473
:10038000653039F5822F90E0B0E0A0E089839A8350
:10039000AB83BC83BC01CD010E94C00623E333E3E1
:1003A00043E250E469837A838B839C8369817A81F9
:1003B0008B819C810E944C0769837A838B839C8309
:1003C00069817A818B819C810E948F0670E081E037
:1003D000CFCF41E0911101C040E0CD010F900F90CF
:1003E0000F900F90DF91CF910C949A05CF93DF93EC
:1003F000EC0140E06A81888199810E949A0540E081
:100400006D818B819C81DF91CF910C949A05CF9364
:10041000DF93EC0141E06A81888199810E949A050D
:1004200040E06D818B819C81DF91CF910C949A0586
:10043000CF93DF93EC0140E06A81888199810E942B
:100440009A0541E06D818B819C81DF91CF910C9465
:100450009A0541E063E083E290E00E949A058FE311
:100460009FE10197F1F700C0000040E063E083E204
:1004700090E00C949A05CF93C82F40E065E083E2AA
:1004800090E00E949A0540E064E083E290E00E94E0
:100490009A056C2F62956F7086E290E00E94DD05F0
:1004A0000E9429026C2F86E290E00E94DD05CF9128
:1004B0000C9429022FEF83EC99E02150804090406A
:1004C000E1F700C0000041E064E083E290E00E94B8
:1004D0007F0541E065E083E290E00E947F0541E016
:1004E00063E083E290E00E947F0561E086E290E0B5
:1004F0000E94CD0582E00E943B028FE59AEE0197B3
:10050000F1F700C0000088E20E943B028FE99FE003
:100510000197F1F700C000008EE00E943B028FE9D6
:100520009FE00197F1F700C0000081E00E943B02CC
:100530008FE39CE90197F1F700C0000086E00C947E
:100540003B02CF93C82F40E065E083E290E00E9439
:100550009A0541E064E083E290E00E949A056C2FE6
:1005600062956F7086E290E00E94DD050E9429028C
:100570006C2F86E290E00E94DD05CF910C94290259
:10058000CF93DF93EC018991811103C0DF91CF916B
:1005900008950E94A102F7CF0F931F93CF93DF938B
:1005A000CDB7DEB7A0970FB6F894DEBF0FBECDBFB4
:1005B0009F938F937F936F938FE591E09F938F939A
:1005C0008E010F5F1F4F1F930F930E94B907C80141
:1005D0000E94C0020FB6F894DEBF0FBECDBFA0963A
:1005E0000FB6F894DEBF0FBECDBFDF91CF911F9144
:1005F0000F91089581E00E943B028FE39CE90197EF
:10060000F1F700C000000895813021F46158862F71
:100610000C943B026154FBCF80E10C943B0280912F
:100620006A018F5F80936A01089582E691E00E94DB
:10063000330441E064E086E290E00E947F0540E000
:1006400060E083E290E00E947F050E9497048FE0C3
:1006500093E00C94C704CF93DF9300D000D0CDB7C4
:10066000DEB741E064E086E290E00E949A0585E30F
:100670008A95F1F7000040E064E086E290E00E9495
:100680009A0581E00E9480040E947B0410926A0116
:1006900080E00E948004AC0120916A0130E0AFEF5D
:1006A000BFEF0E940E06DC01CB01840F951FA11D38
:1006B000B11D89839A83AB83BC83BC01CD010E94A9
:1006C000C00620E030E040E850E469837A838B8301
:1006D0009C8369817A818B819C810E944C0720E0F8
:1006E00030E048E652E469837A838B839C83698196
:1006F0007A818B819C810E941D0669837A838B831A
:100700009C8369817A818B819C810E948F06CB01B9
:100710000F900F900F900F90DF91CF910895FC01F3
:100720008081811111C041E061E083E290E00E948C
:100730007F0582E08093190188E191E00E943304F3
:100740008FE39CE90C9476048130B1F741E062E0DC
:1007500083E290E00E947F0582E080931A01ECCF53
:10076000CF93DF9300D000D00F92CDB7DEB7DC017E
:10077000BC91BD838FEF860F843B98F5862F90E068
:10078000B0E0A0E089839A83AB83BC83BC01CD0138
:100790000E94BE062CEE31E548EB5DE369837A8367
:1007A0008B839C8369817A818B819C810E941D0649
:1007B00069837A838B839C8369817A818B819C8115
:1007C0000E948F06462F572FBA016053784F8D81B4
:1007D0000F900F900F900F900F90DF91CF910C948E
:1007E00068046FEC77E0F3CFFC019381977085B5D7
:1007F000887F892B85BD9081292F237084B58C7FBC
:10080000822B84BD85B592FB83F985BD8181982FAC
:100810009295990F990F907C84B58F73892B84BD25
:1008200082818370982F9295907F84B58F7C892BDD
:1008300084BD0895CF93C62F811109C041E061E0C6
:1008400083E290E00E947F05C7BDCF91089581307B
:10085000E1F741E062E083E290E00E947F05C8BDDD
:10086000F4CF16BC0895CF93DF93FC019481977069
:10087000A1E8B0E08C91887F892B8C938081282F10
:100880002370C0E8D0E098819C7F922B9883880FDA
:1008900088719C91977E892B8C938181982F92955A
:1008A000990F990F907C88818F73892B888382811F
:1008B0008370982F9295907F88818F7C892B888375
:1008C00093818C9190FB87F98C93DF91CF91089560
:1008D000811105C07093890060938800089581306C
:1008E00021F470938B0060938A00089590938700A1
:1008F00080938600089510928500109284000895D8
:100900009091810080FB96F990938100B59AB09AFE
:10091000B59BFECF209186003091870088E090E063
:1009200002C0880F991F3A95E2F7822B0895E6E3FB
:10093000F0E081AD816081AF0895E6E3F0E081AD44
:100940008E7F81AF0895E6E3F0E081AD826081AFF4
:100950000895E6E3F0E081AD8D7F81AF0895E6E391
:10096000F0E081AD846081AF0895E6E3F0E081AD11
:100970008B7F81AF0895E6E3F0E081AD806281AFC7
:100980000895E6E3F0E081AD8F7D81AF0895909307
:1009900072018093710108959093700180936F01AB
:1009A000089590936E0180936D01089590936C016A
:1009B00080936B0108951F920F920FB60F9211242E
:1009C0002F933F934F935F936F937F938F939F9357
:1009D000AF93BF93EF93FF93E0917101F091720198
:1009E000309709F00995FF91EF91BF91AF919F91D9
:1009F0008F917F916F915F914F913F912F910F90C8
:100A00000FBE0F901F9018951F920F920FB60F9266
:100A100011242F933F934F935F936F937F938F9303
:100A20009F93AF93BF93EF93FF93E0916F01F0918A
:100A30007001309709F00995FF91EF91BF91AF9147
:100A40009F918F917F916F915F914F913F912F91E6
:100A50000F900FBE0F901F9018951F920F920FB618
:100A60000F9211242F933F934F935F936F937F9334
:100A70008F939F93AF93BF93EF93FF93E0916D019B
:100A8000F0916E01309709F00995FF91EF91BF91B8
:100A9000AF919F918F917F916F915F914F913F9116
:100AA0002F910F900FBE0F901F9018951F920F92CD
:100AB0000FB60F9211242F933F934F935F936F9331
:100AC0007F938F939F93AF93BF93EF93FF93E091A7
:100AD0006B01F0916C01309709F00995FF91EF914E
:100AE000BF91AF919F918F917F916F915F914F9146
:100AF0003F912F910F900FBE0F901F901895FC0102
:100B000081E090E001C0880F6A95EAF7413021F456
:100B10009181892B81830895282F2095423039F4C3
:100B20009181922391839281892B8283089581817F
:100B30008223F0CFFC0181E090E001C0880F6A952C
:100B4000EAF79281413019F4892B828308958095C8
:100B50008923FBCFFC01208181E090E0062E02C0BA
:100B6000880F991F0A94E2F730E08223932302C092
:100B7000959587956A95E2F70895FC01613019F41F
:100B80008FEF818308951182623019F48FEF828391
:100B900008950895FC0162830895FC01818161300C
:100BA00019F48F6081830895807F8183623021F4FE
:100BB00082818F60828308950895FC018281807F05
:100BC000828382816F70682B62830895FC0181812A
:100BD000613019F4806F818308958F708183623052
:100BE00021F48281806F828308950895FC018281BF
:100BF0008F7082838281607F682B628308950E9458
:100C0000A700E82FF0E0EE0FFF1FE35EFE4F01901C
:100C1000F081E02D09950E94F700F1CFA29FB0016D
:100C2000B39FC001A39F700D811D1124911DB29F20
:100C3000700D811D1124911D08950E9431060C94A0
:100C400012070E940B0758F00E94040740F029F495
:100C50005F3F29F00C94FB0651110C9446070C944D
:100C600001070E94230768F39923B1F3552391F3F9
:100C7000951B550BBB27AA2762177307840738F00B
:100C80009F5F5F4F220F331F441FAA1FA9F335D068
:100C90000E2E3AF0E0E832D091505040E695001C1C
:100CA000CAF72BD0FE2F29D0660F771F881FBB1FD6
:100CB000261737074807AB07B0E809F0BB0B802DB4
:100CC000BF01FF2793585F4F3AF09E3F510578F0E0
:100CD0000C94FB060C9446075F3FE4F3983ED4F374
:100CE000869577956795B795F7959F5FC9F7880FB4
:100CF000911D9695879597F90895E1E0660F771F06
:100D0000881FBB1F621773078407BA0720F0621B96
:100D1000730B840BBA0BEE1F88F7E09508950E94C1
:100D20002B0788F09F5798F0B92F9927B751B0F04B
:100D3000E1F0660F771F881F991F1AF0BA95C9F75F
:100D400014C0B13091F00E944507B1E008950C94B1
:100D50004507672F782F8827B85F39F0B93FCCF364
:100D6000869577956795B395D9F73EF490958095DC
:100D7000709561957F4F8F4F9F4F0895E89409C0FC
:100D800097FB3EF490958095709561957F4F8F4FBE
:100D90009F4F9923A9F0F92F96E9BB279395F695D4
:100DA000879577956795B795F111F8CFFAF4BB0F52
:100DB00011F460FF1BC06F5F7F4F8F4F9F4F16C0B6
:100DC000882311F096E911C0772321F09EE8872F40
:100DD000762F05C0662371F096E8862F70E060E0FC
:100DE0002AF09A95660F771F881FDAF7880F969575
:100DF000879597F9089597F99F6780E870E060E01C
:100E000008959FEF80EC089500240A9416161706A3
:100E100018060906089500240A94121613061406EB
:100E200005060895092E0394000C11F4882352F04E
:100E3000BB0F40F4BF2B11F460FF04C06F5F7F4F06
:100E40008F4F9F4F089557FD9058440F551F59F0ED
:100E50005F3F71F04795880F97FB991F61F09F3FA7
:100E600079F087950895121613061406551FF2CFD0
:100E70004695F1DF08C0161617061806991FF1CF20
:100E800086957105610508940895E894BB27662747
:100E90007727CB0197F908950E945F070C941207FA
:100EA0000E94040738F00E940B0720F0952311F0F0
:100EB0000C94FB060C94010711240C9446070E9425
:100EC000230770F3959FC1F3950F50E0551F629F64
:100ED000F001729FBB27F00DB11D639FAA27F00D93
:100EE000B11DAA1F649F6627B00DA11D661F829FBA
:100EF0002227B00DA11D621F739FB00DA11D621F9F
:100F0000839FA00D611D221F749F3327A00D611DBB
:100F1000231F849F600D211D822F762F6A2F11249D
:100F20009F5750409AF0F1F088234AF0EE0FFF1FD0
:100F3000BB1F661F771F881F91505040A9F79E3F27
:100F4000510580F00C94FB060C9446075F3FE4F3D8
:100F5000983ED4F3869577956795B795F795E7957D
:100F60009F5FC1F7FE2B880F911D9695879597F986
:100F70000895AEE0B0E0EFEBF7E00C94660A0D895F
:100F80001E8986E08C831A8309838FEF9FE79E83F7
:100F90008D83AE01475E5F4F6F89788DCE010196DC
:100FA0000E94DC072F813885020F131FF801108281
:100FB0002E96E4E00C94820AAFE0B0E0E2EEF7E0B7
:100FC0000C94580A7C013B018A01DC0117961C92A3
:100FD0001E92169713968C9181FFC3C19AE0292E19
:100FE000FE0131964F01D70113969C91F30193FDB9
:100FF000859193FF81913F01882309F448C185328F
:1010000039F493FD859193FF81913F01853229F455
:10101000B70190E00E94CA09E6CFB12C412C512CB7
:10102000BFE1B51538F08B3209F188F4803201F157
:10103000833221F157FC3AC020ED280F2A3040F5C9
:1010400056FE1FC0B29C200D1124B22E06C08D3258
:1010500091F0803379F7689450F8F30193FD85910E
:1010600093FF81913F018111DBCF20C0689451F83B
:10107000689452F8F2CF689453F8EFCF689454F81C
:10108000ECCF429C200D1124422E689455F8E5CFF8
:101090008E3229F456FCFBC0689456F8DECF8C36AD
:1010A00019F4689457F8D9CF8836B9F2982F9F7DF4
:1010B00095549330C0F08336A1F18337C1F1833565
:1010C00009F05BC0D801CD90DD908D016B2D70E0F3
:1010D00056FC02C06FEF7FEFC6010E94B4095C01AD
:1010E000689457F80AC00C5F1F4FEFE3E983AA2406
:1010F000A394B12C6401E89457F853FC04C04A143B
:101100001B0409F018F5342CA114B10431F5332077
:1011100009F469CFB70180E290E00E94CA093A94CD
:10112000F6CFD8018C9189830E5F1F4FE0CFF80175
:10113000C190D1908F016B2D70E056FC02C06FEF13
:101140007FEFC6010E94BF095C01D5CFB70180E2E5
:1011500090E00E94CA094A94D2CFF60157FC8591CB
:1011600057FE81916F01B70190E00E94CA093110CA
:101170003A94B1E0AB1AB108C7CF843619F089367A
:1011800009F074C0F80157FE6AC0619171918191B4
:1011900091918F01E52DEF76DE2E97FF09C0909596
:1011A0008095709561957F4F8F4F9F4F6894D7F8CA
:1011B0002AE030E0A4010E94FA09C82EC818AC2C1D
:1011C0005D2CD6FE0CC0E89450F8CB1440F4D4FE4D
:1011D00005C0D2FC03C05D2D5E7E552EAB2C54FEA7
:1011E00098C0FE01EC0DF11D8081803309F08AC0AA
:1011F000652D697E562E752D7870372E53FC98C05C
:1012000050FE92C0BC2CA41418F44C0CB42CBA1888
:1012100054FE94C0B70180E390E00E94CA0952FED8
:1012200009C088E790E051FE02C088E590E0B70170
:101230000E94CA09CB1408F48DC0CA94D12C8FEF38
:10124000C81AD80AC80CD91CD6018E916D01B701F5
:1012500090E00E94CA098C149D04B1F758CF6191A7
:101260007191072E000C880B990B93CFD52CE89425
:10127000D4F82AE030E0853739F1F52DF97FDF2EFB
:101280008037A9F058F48835A9F08F36D9F0F701E6
:10129000868197812F96E2E10C94740A8837B9F71A
:1012A000D4FE02C06894D2F820E130E00DC068940A
:1012B000D4F8F6CF54FE03C02F2F2660D22E20E1A3
:1012C00032E002C028E030E0F801D7FE15C04191BD
:1012D0005191619171914C875D876E877F878F01F6
:1012E000A4016C857D858E859F850E94FA09C82E94
:1012F000C818E894D7F863CF81919191AC0170E060
:1013000060E0E9CF52FC02C0A39475CFA394A394EC
:1013100072CF852D867809F46ECFF6CFB70180E2C3
:1013200090E00E94CA09A394A414C0F3312C70CF9A
:10133000342C3A18A41408F46BCFF8CF852D867896
:1013400009F478CF8BE251FE80E257FC8DE2B701C1
:1013500090E06ECFB70180E390E00E94CA09BA9492
:1013600069CF8FEF9FEF96CFFC01059061507040E1
:101370000110D8F7809590958E0F9F1F0895FC015E
:101380006150704001900110D8F7809590958E0FB4
:101390009F1F08950F931F93CF93DF93182F092F4B
:1013A000EB018B8181FD09C01FEF0FEF812F902F83
:1013B000DF91CF911F910F91089582FF14C02E816C
:1013C0003F818C819D81281739073CF4E881F981A0
:1013D000CF0101969983888310838E819F81019626
:1013E0009F838E83E3CFE885F985812F0995892B2B
:1013F000A1F3DACFFA01AA27283051F1203181F187
:10140000E8946F936E7F6E5F7F4F8F4F9F4FAF4F0C
:10141000B1E03ED0B4E03CD0670F781F891F9A1F1F
:10142000A11D680F791F8A1F911DA11D6A0F711DD3
:10143000811D911DA11D20D009F468943F912AE0DF
:10144000269F11243019305D3193DEF6CF010895C7
:10145000462F4770405D4193B3E00FD0C9F7F6CFF8
:10146000462F4F70405D4A3318F0495D31FD4052C0
:10147000419302D0A9F7EACFB4E0A6959795879556
:1014800077956795BA95C9F7009761057105089535
:101490009B01AC010A2E06945795479537952795E1
:1014A000BA95C9F7620F731F841F951FA01D089579
:1014B0002F923F924F925F926F927F928F929F9264
:1014C000AF92BF92CF92DF92EF92FF920F931F9352
:1014D000CF93DF93CDB7DEB7CA1BDB0B0FB6F89403
:1014E000DEBF0FBECDBF09942A88398848885F8443
:1014F0006E847D848C849B84AA84B984C884DF80B4
:10150000EE80FD800C811B81AA81B981CE0FD11D97
:101510000FB6F894DEBF0FBECDBFED010895F8946D
:02152000FFCFFB
:10152200030A2900022900032900052900002900D5
:1015320001290006010000050E00000002AA00B207
:1015420000BB00C500CE00DC00E500EE004D4F56AA
:1015520045494E472121005350494E4E494E47209E
:101562005249474854005350494E4E494E47204C29
:101572004546540053544F50504544212100002504
:081582006400000000010300F9
:00000001FF
